{
  "_format": "hh-sol-artifact-1",
  "contractName": "PropertyRental",
  "sourceName": "contracts/staybud.sol",
  "abi": [
    {
      "anonymous": false,
      "inputs": [
        {
          "indexed": true,
          "internalType": "address",
          "name": "owner",
          "type": "address"
        },
        {
          "indexed": true,
          "internalType": "uint256",
          "name": "propertyId",
          "type": "uint256"
        }
      ],
      "name": "PropertyCreated",
      "type": "event"
    },
    {
      "anonymous": false,
      "inputs": [
        {
          "indexed": true,
          "internalType": "address",
          "name": "tenant",
          "type": "address"
        },
        {
          "indexed": true,
          "internalType": "uint256",
          "name": "propertyId",
          "type": "uint256"
        },
        {
          "indexed": false,
          "internalType": "uint256",
          "name": "amount",
          "type": "uint256"
        }
      ],
      "name": "RentPaid",
      "type": "event"
    },
    {
      "anonymous": false,
      "inputs": [
        {
          "indexed": true,
          "internalType": "address",
          "name": "tenant",
          "type": "address"
        },
        {
          "indexed": true,
          "internalType": "uint256",
          "name": "propertyId",
          "type": "uint256"
        }
      ],
      "name": "RentalEnded",
      "type": "event"
    },
    {
      "inputs": [
        {
          "internalType": "uint256",
          "name": "rent",
          "type": "uint256"
        },
        {
          "internalType": "uint256",
          "name": "deposit",
          "type": "uint256"
        },
        {
          "internalType": "uint256",
          "name": "startTimestamp",
          "type": "uint256"
        },
        {
          "internalType": "uint256",
          "name": "endTimestamp",
          "type": "uint256"
        }
      ],
      "name": "createProperty",
      "outputs": [],
      "stateMutability": "nonpayable",
      "type": "function"
    },
    {
      "inputs": [
        {
          "internalType": "uint256",
          "name": "propertyId",
          "type": "uint256"
        }
      ],
      "name": "endRental",
      "outputs": [],
      "stateMutability": "nonpayable",
      "type": "function"
    },
    {
      "inputs": [],
      "name": "numProperties",
      "outputs": [
        {
          "internalType": "uint256",
          "name": "",
          "type": "uint256"
        }
      ],
      "stateMutability": "view",
      "type": "function"
    },
    {
      "inputs": [
        {
          "internalType": "uint256",
          "name": "propertyId",
          "type": "uint256"
        }
      ],
      "name": "payRent",
      "outputs": [],
      "stateMutability": "payable",
      "type": "function"
    },
    {
      "inputs": [
        {
          "internalType": "uint256",
          "name": "",
          "type": "uint256"
        }
      ],
      "name": "properties",
      "outputs": [
        {
          "internalType": "address",
          "name": "owner",
          "type": "address"
        },
        {
          "internalType": "uint256",
          "name": "rent",
          "type": "uint256"
        },
        {
          "internalType": "uint256",
          "name": "deposit",
          "type": "uint256"
        },
        {
          "internalType": "uint256",
          "name": "startTimestamp",
          "type": "uint256"
        },
        {
          "internalType": "uint256",
          "name": "endTimestamp",
          "type": "uint256"
        },
        {
          "internalType": "uint256",
          "name": "paidUntil",
          "type": "uint256"
        },
        {
          "internalType": "bool",
          "name": "active",
          "type": "bool"
        }
      ],
      "stateMutability": "view",
      "type": "function"
    }
  ],
  "bytecode": "0x608060405234801561001057600080fd5b50610f42806100206000396000f3fe60806040526004361061004a5760003560e01c806397491d6f1461004f578063b256a1c414610078578063d2ad5d9a146100a3578063d9e8843f146100cc578063f7b10808146100e8575b600080fd5b34801561005b57600080fd5b5061007660048036038101906100719190610850565b61012b565b005b34801561008457600080fd5b5061008d610341565b60405161009a919061088c565b60405180910390f35b3480156100af57600080fd5b506100ca60048036038101906100c591906108a7565b610347565b005b6100e660048036038101906100e19190610850565b6105b5565b005b3480156100f457600080fd5b5061010f600480360381019061010a9190610850565b6107a6565b604051610122979695949392919061096a565b60405180910390f35b600080600083815260200190815260200160002090508060060160009054906101000a900460ff16610192576040517f08c379a000000000000000000000000000000000000000000000000000000000815260040161018990610a36565b60405180910390fd5b8060000160009054906101000a900473ffffffffffffffffffffffffffffffffffffffff1673ffffffffffffffffffffffffffffffffffffffff163373ffffffffffffffffffffffffffffffffffffffff16148061021b57503073ffffffffffffffffffffffffffffffffffffffff163373ffffffffffffffffffffffffffffffffffffffff16145b61025a576040517f08c379a000000000000000000000000000000000000000000000000000000000815260040161025190610ac8565b60405180910390fd5b60008160060160006101000a81548160ff0219169083151502179055503373ffffffffffffffffffffffffffffffffffffffff166108fc62278d0083600101544285600501546102aa9190610b17565b6102b49190610b4b565b6102be9190610bd4565b83600201546102cd9190610c05565b9081150290604051600060405180830381858888f193505050501580156102f8573d6000803e3d6000fd5b50813373ffffffffffffffffffffffffffffffffffffffff167ff930704665fcf9291bccc9facd2f7f348b88a9047c3d24fb4e71a923097ffa7060405160405180910390a35050565b60015481565b6000841161038a576040517f08c379a000000000000000000000000000000000000000000000000000000000815260040161038190610ca7565b60405180910390fd5b600083116103cd576040517f08c379a00000000000000000000000000000000000000000000000000000000081526004016103c490610d39565b60405180910390fd5b42821161040f576040517f08c379a000000000000000000000000000000000000000000000000000000000815260040161040690610da5565b60405180910390fd5b818111610451576040517f08c379a000000000000000000000000000000000000000000000000000000000815260040161044890610e37565b60405180910390fd5b600060015490506040518060e001604052803373ffffffffffffffffffffffffffffffffffffffff1681526020018681526020018581526020018481526020018381526020018481526020016001151581525060008083815260200190815260200160002060008201518160000160006101000a81548173ffffffffffffffffffffffffffffffffffffffff021916908373ffffffffffffffffffffffffffffffffffffffff1602179055506020820151816001015560408201518160020155606082015181600301556080820151816004015560a0820151816005015560c08201518160060160006101000a81548160ff0219169083151502179055509050506001600081548092919061056590610e57565b9190505550803373ffffffffffffffffffffffffffffffffffffffff167f01c79a3cb2db1a8ea30612fb784609966eedbb0bd5c11c56eb6609562dea821560405160405180910390a35050505050565b600080600083815260200190815260200160002090508060060160009054906101000a900460ff1661061c576040517f08c379a000000000000000000000000000000000000000000000000000000000815260040161061390610a36565b60405180910390fd5b8060010154341015610663576040517f08c379a000000000000000000000000000000000000000000000000000000000815260040161065a90610eec565b60405180910390fd5b60008160010154346106759190610b17565b905060008111156106c8573373ffffffffffffffffffffffffffffffffffffffff166108fc829081150290604051600060405180830381858888f193505050501580156106c6573d6000803e3d6000fd5b505b8160000160009054906101000a900473ffffffffffffffffffffffffffffffffffffffff1673ffffffffffffffffffffffffffffffffffffffff166108fc83600101549081150290604051600060405180830381858888f19350505050158015610736573d6000803e3d6000fd5b5062278d00826005015461074a9190610c05565b8260050181905550823373ffffffffffffffffffffffffffffffffffffffff167f33d9ffd7947b17c37c9905165c01183282058f1cb2252c9be395887d078572ad34604051610799919061088c565b60405180910390a3505050565b60006020528060005260406000206000915090508060000160009054906101000a900473ffffffffffffffffffffffffffffffffffffffff16908060010154908060020154908060030154908060040154908060050154908060060160009054906101000a900460ff16905087565b600080fd5b6000819050919050565b61082d8161081a565b811461083857600080fd5b50565b60008135905061084a81610824565b92915050565b60006020828403121561086657610865610815565b5b60006108748482850161083b565b91505092915050565b6108868161081a565b82525050565b60006020820190506108a1600083018461087d565b92915050565b600080600080608085870312156108c1576108c0610815565b5b60006108cf8782880161083b565b94505060206108e08782880161083b565b93505060406108f18782880161083b565b92505060606109028782880161083b565b91505092959194509250565b600073ffffffffffffffffffffffffffffffffffffffff82169050919050565b60006109398261090e565b9050919050565b6109498161092e565b82525050565b60008115159050919050565b6109648161094f565b82525050565b600060e08201905061097f600083018a610940565b61098c602083018961087d565b610999604083018861087d565b6109a6606083018761087d565b6109b3608083018661087d565b6109c060a083018561087d565b6109cd60c083018461095b565b98975050505050505050565b600082825260208201905092915050565b7f50726f7065727479206973206e6f742061637469766500000000000000000000600082015250565b6000610a206016836109d9565b9150610a2b826109ea565b602082019050919050565b60006020820190508181036000830152610a4f81610a13565b9050919050565b7f4f6e6c79206f776e6572206f7220636f6e74726163742063616e20656e64207260008201527f656e74616c000000000000000000000000000000000000000000000000000000602082015250565b6000610ab26025836109d9565b9150610abd82610a56565b604082019050919050565b60006020820190508181036000830152610ae181610aa5565b9050919050565b7f4e487b7100000000000000000000000000000000000000000000000000000000600052601160045260246000fd5b6000610b228261081a565b9150610b2d8361081a565b925082821015610b4057610b3f610ae8565b5b828203905092915050565b6000610b568261081a565b9150610b618361081a565b9250817fffffffffffffffffffffffffffffffffffffffffffffffffffffffffffffffff0483118215151615610b9a57610b99610ae8565b5b828202905092915050565b7f4e487b7100000000000000000000000000000000000000000000000000000000600052601260045260246000fd5b6000610bdf8261081a565b9150610bea8361081a565b925082610bfa57610bf9610ba5565b5b828204905092915050565b6000610c108261081a565b9150610c1b8361081a565b9250827fffffffffffffffffffffffffffffffffffffffffffffffffffffffffffffffff03821115610c5057610c4f610ae8565b5b828201905092915050565b7f52656e74206d7573742062652067726561746572207468616e207a65726f0000600082015250565b6000610c91601e836109d9565b9150610c9c82610c5b565b602082019050919050565b60006020820190508181036000830152610cc081610c84565b9050919050565b7f4465706f736974206d7573742062652067726561746572207468616e207a657260008201527f6f00000000000000000000000000000000000000000000000000000000000000602082015250565b6000610d236021836109d9565b9150610d2e82610cc7565b604082019050919050565b60006020820190508181036000830152610d5281610d16565b9050919050565b7f53746172742074696d65206d75737420626520696e2074686520667574757265600082015250565b6000610d8f6020836109d9565b9150610d9a82610d59565b602082019050919050565b60006020820190508181036000830152610dbe81610d82565b9050919050565b7f456e642074696d65206d7573742062652061667465722073746172742074696d60008201527f6500000000000000000000000000000000000000000000000000000000000000602082015250565b6000610e216021836109d9565b9150610e2c82610dc5565b604082019050919050565b60006020820190508181036000830152610e5081610e14565b9050919050565b6000610e628261081a565b91507fffffffffffffffffffffffffffffffffffffffffffffffffffffffffffffffff821415610e9557610e94610ae8565b5b600182019050919050565b7f496e73756666696369656e74207061796d656e7420616d6f756e740000000000600082015250565b6000610ed6601b836109d9565b9150610ee182610ea0565b602082019050919050565b60006020820190508181036000830152610f0581610ec9565b905091905056fea2646970667358221220f40ad545ff72727729a068d02bec501ceb7bac01788b49646f4c91acf30c0e2464736f6c63430008090033",
  "linkReferences": {},
  "deployedLinkReferences": {}
}